{
  "_format": "hh-sol-artifact-1",
  "contractName": "Users",
  "sourceName": "contracts/Users.sol",
  "abi": [
    {
      "inputs": [],
      "stateMutability": "nonpayable",
      "type": "constructor"
    },
    {
      "inputs": [
        {
          "internalType": "address",
          "name": "_userAddress",
          "type": "address"
        }
      ],
      "name": "getUser",
      "outputs": [
        {
          "internalType": "address",
          "name": "id",
          "type": "address"
        },
        {
          "internalType": "address",
          "name": "username",
          "type": "address"
        },
        {
          "internalType": "string",
          "name": "password",
          "type": "string"
        },
        {
          "internalType": "bool",
          "name": "isParent",
          "type": "bool"
        },
        {
          "internalType": "uint8",
          "name": "familyId",
          "type": "uint8"
        }
      ],
      "stateMutability": "view",
      "type": "function"
    },
    {
      "inputs": [
        {
          "internalType": "address",
          "name": "_account",
          "type": "address"
        },
        {
          "internalType": "string",
          "name": "_password",
          "type": "string"
        }
      ],
      "name": "registerUser",
      "outputs": [],
      "stateMutability": "nonpayable",
      "type": "function"
    }
  ],
  "bytecode": "0x608060405234801561001057600080fd5b506040518060a001604052803373ffffffffffffffffffffffffffffffffffffffff1681526020013373ffffffffffffffffffffffffffffffffffffffff1681526020016040518060400160405280600881526020017f70617373776f72640000000000000000000000000000000000000000000000008152508152602001600115158152602001600160ff168152506000803373ffffffffffffffffffffffffffffffffffffffff1673ffffffffffffffffffffffffffffffffffffffff16815260200190815260200160002060008201518160000160006101000a81548173ffffffffffffffffffffffffffffffffffffffff021916908373ffffffffffffffffffffffffffffffffffffffff16021790555060208201518160010160006101000a81548173ffffffffffffffffffffffffffffffffffffffff021916908373ffffffffffffffffffffffffffffffffffffffff1602179055506040820151816002019081610181919061041b565b5060608201518160030160006101000a81548160ff02191690831515021790555060808201518160030160016101000a81548160ff021916908360ff1602179055509050506104ed565b600081519050919050565b7f4e487b7100000000000000000000000000000000000000000000000000000000600052604160045260246000fd5b7f4e487b7100000000000000000000000000000000000000000000000000000000600052602260045260246000fd5b6000600282049050600182168061024c57607f821691505b60208210810361025f5761025e610205565b5b50919050565b60008190508160005260206000209050919050565b60006020601f8301049050919050565b600082821b905092915050565b6000600883026102c77fffffffffffffffffffffffffffffffffffffffffffffffffffffffffffffffff8261028a565b6102d1868361028a565b95508019841693508086168417925050509392505050565b6000819050919050565b6000819050919050565b600061031861031361030e846102e9565b6102f3565b6102e9565b9050919050565b6000819050919050565b610332836102fd565b61034661033e8261031f565b848454610297565b825550505050565b600090565b61035b61034e565b610366818484610329565b505050565b5b8181101561038a5761037f600082610353565b60018101905061036c565b5050565b601f8211156103cf576103a081610265565b6103a98461027a565b810160208510156103b8578190505b6103cc6103c48561027a565b83018261036b565b50505b505050565b600082821c905092915050565b60006103f2600019846008026103d4565b1980831691505092915050565b600061040b83836103e1565b9150826002028217905092915050565b610424826101cb565b67ffffffffffffffff81111561043d5761043c6101d6565b5b6104478254610234565b61045282828561038e565b600060209050601f8311600181146104855760008415610473578287015190505b61047d85826103ff565b8655506104e5565b601f19841661049386610265565b60005b828110156104bb57848901518255600182019150602085019450602081019050610496565b868310156104d857848901516104d4601f8916826103e1565b8355505b6001600288020188555050505b505050505050565b610c60806104fc6000396000f3fe608060405234801561001057600080fd5b50600436106100365760003560e01c80630ea126f91461003b5780636f77926b14610057575b600080fd5b610055600480360381019061005091906106c2565b61008b565b005b610071600480360381019061006c919061071e565b6102df565b604051610082959493929190610810565b60405180910390f35b600073ffffffffffffffffffffffffffffffffffffffff166000808473ffffffffffffffffffffffffffffffffffffffff1673ffffffffffffffffffffffffffffffffffffffff16815260200190815260200160002060000160009054906101000a900473ffffffffffffffffffffffffffffffffffffffff1673ffffffffffffffffffffffffffffffffffffffff161461015b576040517f08c379a0000000000000000000000000000000000000000000000000000000008152600401610152906108b6565b60405180910390fd5b6040518060a001604052808373ffffffffffffffffffffffffffffffffffffffff1681526020018373ffffffffffffffffffffffffffffffffffffffff168152602001828152602001600015158152602001600060ff168152506000808473ffffffffffffffffffffffffffffffffffffffff1673ffffffffffffffffffffffffffffffffffffffff16815260200190815260200160002060008201518160000160006101000a81548173ffffffffffffffffffffffffffffffffffffffff021916908373ffffffffffffffffffffffffffffffffffffffff16021790555060208201518160010160006101000a81548173ffffffffffffffffffffffffffffffffffffffff021916908373ffffffffffffffffffffffffffffffffffffffff16021790555060408201518160020190816102969190610aec565b5060608201518160030160006101000a81548160ff02191690831515021790555060808201518160030160016101000a81548160ff021916908360ff1602179055509050505050565b60008060606000808573ffffffffffffffffffffffffffffffffffffffff166000808873ffffffffffffffffffffffffffffffffffffffff1673ffffffffffffffffffffffffffffffffffffffff16815260200190815260200160002060000160009054906101000a900473ffffffffffffffffffffffffffffffffffffffff1673ffffffffffffffffffffffffffffffffffffffff16146103b6576040517f08c379a00000000000000000000000000000000000000000000000000000000081526004016103ad90610c0a565b60405180910390fd5b60008060008873ffffffffffffffffffffffffffffffffffffffff1673ffffffffffffffffffffffffffffffffffffffff16815260200190815260200160002090508060000160009054906101000a900473ffffffffffffffffffffffffffffffffffffffff168160010160009054906101000a900473ffffffffffffffffffffffffffffffffffffffff16826002018360030160009054906101000a900460ff168460030160019054906101000a900460ff1682805461047690610905565b80601f01602080910402602001604051908101604052809291908181526020018280546104a290610905565b80156104ef5780601f106104c4576101008083540402835291602001916104ef565b820191906000526020600020905b8154815290600101906020018083116104d257829003601f168201915b50505050509250955095509550955095505091939590929450565b6000604051905090565b600080fd5b600080fd5b600073ffffffffffffffffffffffffffffffffffffffff82169050919050565b60006105498261051e565b9050919050565b6105598161053e565b811461056457600080fd5b50565b60008135905061057681610550565b92915050565b600080fd5b600080fd5b6000601f19601f8301169050919050565b7f4e487b7100000000000000000000000000000000000000000000000000000000600052604160045260246000fd5b6105cf82610586565b810181811067ffffffffffffffff821117156105ee576105ed610597565b5b80604052505050565b600061060161050a565b905061060d82826105c6565b919050565b600067ffffffffffffffff82111561062d5761062c610597565b5b61063682610586565b9050602081019050919050565b82818337600083830152505050565b600061066561066084610612565b6105f7565b90508281526020810184848401111561068157610680610581565b5b61068c848285610643565b509392505050565b600082601f8301126106a9576106a861057c565b5b81356106b9848260208601610652565b91505092915050565b600080604083850312156106d9576106d8610514565b5b60006106e785828601610567565b925050602083013567ffffffffffffffff81111561070857610707610519565b5b61071485828601610694565b9150509250929050565b60006020828403121561073457610733610514565b5b600061074284828501610567565b91505092915050565b6107548161053e565b82525050565b600081519050919050565b600082825260208201905092915050565b60005b83811015610794578082015181840152602081019050610779565b60008484015250505050565b60006107ab8261075a565b6107b58185610765565b93506107c5818560208601610776565b6107ce81610586565b840191505092915050565b60008115159050919050565b6107ee816107d9565b82525050565b600060ff82169050919050565b61080a816107f4565b82525050565b600060a082019050610825600083018861074b565b610832602083018761074b565b818103604083015261084481866107a0565b905061085360608301856107e5565b6108606080830184610801565b9695505050505050565b7f5573657220616c72656164792072656769737465726564210000000000000000600082015250565b60006108a0601883610765565b91506108ab8261086a565b602082019050919050565b600060208201905081810360008301526108cf81610893565b9050919050565b7f4e487b7100000000000000000000000000000000000000000000000000000000600052602260045260246000fd5b6000600282049050600182168061091d57607f821691505b6020821081036109305761092f6108d6565b5b50919050565b60008190508160005260206000209050919050565b60006020601f8301049050919050565b600082821b905092915050565b6000600883026109987fffffffffffffffffffffffffffffffffffffffffffffffffffffffffffffffff8261095b565b6109a2868361095b565b95508019841693508086168417925050509392505050565b6000819050919050565b6000819050919050565b60006109e96109e46109df846109ba565b6109c4565b6109ba565b9050919050565b6000819050919050565b610a03836109ce565b610a17610a0f826109f0565b848454610968565b825550505050565b600090565b610a2c610a1f565b610a378184846109fa565b505050565b5b81811015610a5b57610a50600082610a24565b600181019050610a3d565b5050565b601f821115610aa057610a7181610936565b610a7a8461094b565b81016020851015610a89578190505b610a9d610a958561094b565b830182610a3c565b50505b505050565b600082821c905092915050565b6000610ac360001984600802610aa5565b1980831691505092915050565b6000610adc8383610ab2565b9150826002028217905092915050565b610af58261075a565b67ffffffffffffffff811115610b0e57610b0d610597565b5b610b188254610905565b610b23828285610a5f565b600060209050601f831160018114610b565760008415610b44578287015190505b610b4e8582610ad0565b865550610bb6565b601f198416610b6486610936565b60005b82811015610b8c57848901518255600182019150602085019450602081019050610b67565b86831015610ba95784890151610ba5601f891682610ab2565b8355505b6001600288020188555050505b505050505050565b7f55736572204e6f7420466f756e64000000000000000000000000000000000000600082015250565b6000610bf4600e83610765565b9150610bff82610bbe565b602082019050919050565b60006020820190508181036000830152610c2381610be7565b905091905056fea264697066735822122028a14c362047b59340d842087b39ed45747d469f50ac995313fc9b9f9443a79d64736f6c634300081c0033",
  "linkReferences": {},
  "deployedLinkReferences": {}
}