{
  "_format": "hh-sol-artifact-1",
  "contractName": "Users",
  "sourceName": "contracts/Users.sol",
  "abi": [
    {
      "inputs": [
        {
          "internalType": "address",
          "name": "_owner",
          "type": "address"
        }
      ],
      "stateMutability": "nonpayable",
      "type": "constructor"
    },
    {
      "inputs": [
        {
          "internalType": "address",
          "name": "_account",
          "type": "address"
        },
        {
          "internalType": "bool",
          "name": "_isParent",
          "type": "bool"
        }
      ],
      "name": "addMember",
      "outputs": [],
      "stateMutability": "nonpayable",
      "type": "function"
    },
    {
      "inputs": [
        {
          "internalType": "address",
          "name": "_userAddress",
          "type": "address"
        }
      ],
      "name": "getUser",
      "outputs": [
        {
          "internalType": "address",
          "name": "id",
          "type": "address"
        },
        {
          "internalType": "address",
          "name": "username",
          "type": "address"
        },
        {
          "internalType": "string",
          "name": "password",
          "type": "string"
        },
        {
          "internalType": "bool",
          "name": "isParent",
          "type": "bool"
        },
        {
          "internalType": "uint8",
          "name": "familyId",
          "type": "uint8"
        }
      ],
      "stateMutability": "view",
      "type": "function"
    },
    {
      "inputs": [
        {
          "internalType": "address",
          "name": "_account",
          "type": "address"
        },
        {
          "internalType": "string",
          "name": "_password",
          "type": "string"
        }
      ],
      "name": "registerUser",
      "outputs": [],
      "stateMutability": "nonpayable",
      "type": "function"
    }
  ],
  "bytecode": "0x608060405234801561001057600080fd5b5060405161162838038061162883398181016040528101906100329190610250565b6040518060a001604052808273ffffffffffffffffffffffffffffffffffffffff1681526020018273ffffffffffffffffffffffffffffffffffffffff1681526020016040518060400160405280600881526020017f70617373776f72640000000000000000000000000000000000000000000000008152508152602001600115158152602001600160ff168152506000808373ffffffffffffffffffffffffffffffffffffffff1673ffffffffffffffffffffffffffffffffffffffff16815260200190815260200160002060008201518160000160006101000a81548173ffffffffffffffffffffffffffffffffffffffff021916908373ffffffffffffffffffffffffffffffffffffffff16021790555060208201518160010160006101000a81548173ffffffffffffffffffffffffffffffffffffffff021916908373ffffffffffffffffffffffffffffffffffffffff16021790555060408201518160020190816101a291906104cd565b5060608201518160030160006101000a81548160ff02191690831515021790555060808201518160030160016101000a81548160ff021916908360ff1602179055509050505061059f565b600080fd5b600073ffffffffffffffffffffffffffffffffffffffff82169050919050565b600061021d826101f2565b9050919050565b61022d81610212565b811461023857600080fd5b50565b60008151905061024a81610224565b92915050565b600060208284031215610266576102656101ed565b5b60006102748482850161023b565b91505092915050565b600081519050919050565b7f4e487b7100000000000000000000000000000000000000000000000000000000600052604160045260246000fd5b7f4e487b7100000000000000000000000000000000000000000000000000000000600052602260045260246000fd5b600060028204905060018216806102fe57607f821691505b602082108103610311576103106102b7565b5b50919050565b60008190508160005260206000209050919050565b60006020601f8301049050919050565b600082821b905092915050565b6000600883026103797fffffffffffffffffffffffffffffffffffffffffffffffffffffffffffffffff8261033c565b610383868361033c565b95508019841693508086168417925050509392505050565b6000819050919050565b6000819050919050565b60006103ca6103c56103c08461039b565b6103a5565b61039b565b9050919050565b6000819050919050565b6103e4836103af565b6103f86103f0826103d1565b848454610349565b825550505050565b600090565b61040d610400565b6104188184846103db565b505050565b5b8181101561043c57610431600082610405565b60018101905061041e565b5050565b601f8211156104815761045281610317565b61045b8461032c565b8101602085101561046a578190505b61047e6104768561032c565b83018261041d565b50505b505050565b600082821c905092915050565b60006104a460001984600802610486565b1980831691505092915050565b60006104bd8383610493565b9150826002028217905092915050565b6104d68261027d565b67ffffffffffffffff8111156104ef576104ee610288565b5b6104f982546102e6565b610504828285610440565b600060209050601f8311600181146105375760008415610525578287015190505b61052f85826104b1565b865550610597565b601f19841661054586610317565b60005b8281101561056d57848901518255600182019150602085019450602081019050610548565b8683101561058a5784890151610586601f891682610493565b8355505b6001600288020188555050505b505050505050565b61107a806105ae6000396000f3fe608060405234801561001057600080fd5b50600436106100415760003560e01c80630ea126f9146100465780636f77926b14610062578063c9030ea014610096575b600080fd5b610060600480360381019061005b919061094c565b6100b2565b005b61007c600480360381019061007791906109a8565b610306565b60405161008d959493929190610a9a565b60405180910390f35b6100b060048036038101906100ab9190610b20565b610531565b005b600073ffffffffffffffffffffffffffffffffffffffff166000808473ffffffffffffffffffffffffffffffffffffffff1673ffffffffffffffffffffffffffffffffffffffff16815260200190815260200160002060000160009054906101000a900473ffffffffffffffffffffffffffffffffffffffff1673ffffffffffffffffffffffffffffffffffffffff1614610182576040517f08c379a000000000000000000000000000000000000000000000000000000000815260040161017990610bac565b60405180910390fd5b6040518060a001604052808373ffffffffffffffffffffffffffffffffffffffff1681526020018373ffffffffffffffffffffffffffffffffffffffff168152602001828152602001600015158152602001600060ff168152506000808473ffffffffffffffffffffffffffffffffffffffff1673ffffffffffffffffffffffffffffffffffffffff16815260200190815260200160002060008201518160000160006101000a81548173ffffffffffffffffffffffffffffffffffffffff021916908373ffffffffffffffffffffffffffffffffffffffff16021790555060208201518160010160006101000a81548173ffffffffffffffffffffffffffffffffffffffff021916908373ffffffffffffffffffffffffffffffffffffffff16021790555060408201518160020190816102bd9190610de2565b5060608201518160030160006101000a81548160ff02191690831515021790555060808201518160030160016101000a81548160ff021916908360ff1602179055509050505050565b60008060606000808573ffffffffffffffffffffffffffffffffffffffff166000808873ffffffffffffffffffffffffffffffffffffffff1673ffffffffffffffffffffffffffffffffffffffff16815260200190815260200160002060000160009054906101000a900473ffffffffffffffffffffffffffffffffffffffff1673ffffffffffffffffffffffffffffffffffffffff16146103dd576040517f08c379a00000000000000000000000000000000000000000000000000000000081526004016103d490610f00565b60405180910390fd5b60008060008873ffffffffffffffffffffffffffffffffffffffff1673ffffffffffffffffffffffffffffffffffffffff16815260200190815260200160002090508060000160009054906101000a900473ffffffffffffffffffffffffffffffffffffffff168160010160009054906101000a900473ffffffffffffffffffffffffffffffffffffffff16826002018360030160009054906101000a900460ff168460030160019054906101000a900460ff1682805461049d90610bfb565b80601f01602080910402602001604051908101604052809291908181526020018280546104c990610bfb565b80156105165780601f106104eb57610100808354040283529160200191610516565b820191906000526020600020905b8154815290600101906020018083116104f957829003601f168201915b50505050509250955095509550955095505091939590929450565b6000803373ffffffffffffffffffffffffffffffffffffffff1673ffffffffffffffffffffffffffffffffffffffff16815260200190815260200160002060030160009054906101000a900460ff166105bf576040517f08c379a00000000000000000000000000000000000000000000000000000000081526004016105b690610f6c565b60405180910390fd5b600073ffffffffffffffffffffffffffffffffffffffff166000808473ffffffffffffffffffffffffffffffffffffffff1673ffffffffffffffffffffffffffffffffffffffff16815260200190815260200160002060000160009054906101000a900473ffffffffffffffffffffffffffffffffffffffff1673ffffffffffffffffffffffffffffffffffffffff160361068f576040517f08c379a000000000000000000000000000000000000000000000000000000000815260040161068690611024565b60405180910390fd5b6000803373ffffffffffffffffffffffffffffffffffffffff1673ffffffffffffffffffffffffffffffffffffffff16815260200190815260200160002060030160019054906101000a900460ff166000808473ffffffffffffffffffffffffffffffffffffffff1673ffffffffffffffffffffffffffffffffffffffff16815260200190815260200160002060030160016101000a81548160ff021916908360ff160217905550806000808473ffffffffffffffffffffffffffffffffffffffff1673ffffffffffffffffffffffffffffffffffffffff16815260200190815260200160002060030160006101000a81548160ff0219169083151502179055505050565b6000604051905090565b600080fd5b600080fd5b600073ffffffffffffffffffffffffffffffffffffffff82169050919050565b60006107d3826107a8565b9050919050565b6107e3816107c8565b81146107ee57600080fd5b50565b600081359050610800816107da565b92915050565b600080fd5b600080fd5b6000601f19601f8301169050919050565b7f4e487b7100000000000000000000000000000000000000000000000000000000600052604160045260246000fd5b61085982610810565b810181811067ffffffffffffffff8211171561087857610877610821565b5b80604052505050565b600061088b610794565b90506108978282610850565b919050565b600067ffffffffffffffff8211156108b7576108b6610821565b5b6108c082610810565b9050602081019050919050565b82818337600083830152505050565b60006108ef6108ea8461089c565b610881565b90508281526020810184848401111561090b5761090a61080b565b5b6109168482856108cd565b509392505050565b600082601f83011261093357610932610806565b5b81356109438482602086016108dc565b91505092915050565b600080604083850312156109635761096261079e565b5b6000610971858286016107f1565b925050602083013567ffffffffffffffff811115610992576109916107a3565b5b61099e8582860161091e565b9150509250929050565b6000602082840312156109be576109bd61079e565b5b60006109cc848285016107f1565b91505092915050565b6109de816107c8565b82525050565b600081519050919050565b600082825260208201905092915050565b60005b83811015610a1e578082015181840152602081019050610a03565b60008484015250505050565b6000610a35826109e4565b610a3f81856109ef565b9350610a4f818560208601610a00565b610a5881610810565b840191505092915050565b60008115159050919050565b610a7881610a63565b82525050565b600060ff82169050919050565b610a9481610a7e565b82525050565b600060a082019050610aaf60008301886109d5565b610abc60208301876109d5565b8181036040830152610ace8186610a2a565b9050610add6060830185610a6f565b610aea6080830184610a8b565b9695505050505050565b610afd81610a63565b8114610b0857600080fd5b50565b600081359050610b1a81610af4565b92915050565b60008060408385031215610b3757610b3661079e565b5b6000610b45858286016107f1565b9250506020610b5685828601610b0b565b9150509250929050565b7f5573657220616c72656164792072656769737465726564210000000000000000600082015250565b6000610b966018836109ef565b9150610ba182610b60565b602082019050919050565b60006020820190508181036000830152610bc581610b89565b9050919050565b7f4e487b7100000000000000000000000000000000000000000000000000000000600052602260045260246000fd5b60006002820490506001821680610c1357607f821691505b602082108103610c2657610c25610bcc565b5b50919050565b60008190508160005260206000209050919050565b60006020601f8301049050919050565b600082821b905092915050565b600060088302610c8e7fffffffffffffffffffffffffffffffffffffffffffffffffffffffffffffffff82610c51565b610c988683610c51565b95508019841693508086168417925050509392505050565b6000819050919050565b6000819050919050565b6000610cdf610cda610cd584610cb0565b610cba565b610cb0565b9050919050565b6000819050919050565b610cf983610cc4565b610d0d610d0582610ce6565b848454610c5e565b825550505050565b600090565b610d22610d15565b610d2d818484610cf0565b505050565b5b81811015610d5157610d46600082610d1a565b600181019050610d33565b5050565b601f821115610d9657610d6781610c2c565b610d7084610c41565b81016020851015610d7f578190505b610d93610d8b85610c41565b830182610d32565b50505b505050565b600082821c905092915050565b6000610db960001984600802610d9b565b1980831691505092915050565b6000610dd28383610da8565b9150826002028217905092915050565b610deb826109e4565b67ffffffffffffffff811115610e0457610e03610821565b5b610e0e8254610bfb565b610e19828285610d55565b600060209050601f831160018114610e4c5760008415610e3a578287015190505b610e448582610dc6565b865550610eac565b601f198416610e5a86610c2c565b60005b82811015610e8257848901518255600182019150602085019450602081019050610e5d565b86831015610e9f5784890151610e9b601f891682610da8565b8355505b6001600288020188555050505b505050505050565b7f55736572204e6f7420466f756e64000000000000000000000000000000000000600082015250565b6000610eea600e836109ef565b9150610ef582610eb4565b602082019050919050565b60006020820190508181036000830152610f1981610edd565b9050919050565b7f4f6e6c7920706172656e742063616e20616464206d656d626572730000000000600082015250565b6000610f56601b836109ef565b9150610f6182610f20565b602082019050919050565b60006020820190508181036000830152610f8581610f49565b9050919050565b7f46616d696c79204d656d626572206e6f7420726567697374657265642120546860008201527f6579206d7573742063726561746520616e206163636f756e7420746f2062652060208201527f61646465642061732061206d656d6265722e0000000000000000000000000000604082015250565b600061100e6052836109ef565b915061101982610f8c565b606082019050919050565b6000602082019050818103600083015261103d81611001565b905091905056fea26469706673582212202c3d48cad36c3710087a34c477c8910349f752e5fee8ccb3f6bcc782b4fc746e64736f6c634300081c0033",
  "linkReferences": {},
  "deployedLinkReferences": {}
}