{
  "_format": "hh-sol-artifact-1",
  "contractName": "Users",
  "sourceName": "contracts/Users.sol",
  "abi": [
    {
      "inputs": [
        {
          "internalType": "address",
          "name": "_userAddress",
          "type": "address"
        }
      ],
      "name": "getUser",
      "outputs": [
        {
          "internalType": "address",
          "name": "id",
          "type": "address"
        },
        {
          "internalType": "string",
          "name": "username",
          "type": "string"
        },
        {
          "internalType": "string",
          "name": "password",
          "type": "string"
        },
        {
          "internalType": "bool",
          "name": "isParent",
          "type": "bool"
        },
        {
          "internalType": "uint8",
          "name": "familyId",
          "type": "uint8"
        }
      ],
      "stateMutability": "view",
      "type": "function"
    },
    {
      "inputs": [
        {
          "internalType": "address",
          "name": "_account",
          "type": "address"
        },
        {
          "internalType": "string",
          "name": "_username",
          "type": "string"
        },
        {
          "internalType": "string",
          "name": "_password",
          "type": "string"
        }
      ],
      "name": "registerUser",
      "outputs": [],
      "stateMutability": "nonpayable",
      "type": "function"
    }
  ],
  "bytecode": "0x6080604052348015600f57600080fd5b50610cbb8061001f6000396000f3fe608060405234801561001057600080fd5b50600436106100365760003560e01c80636f77926b1461003b578063db0c87c91461006f575b600080fd5b610055600480360381019061005091906105a1565b61008b565b6040516100669594939291906106a4565b60405180910390f35b6100896004803603810190610084919061083a565b610321565b005b60006060806000808573ffffffffffffffffffffffffffffffffffffffff166000808873ffffffffffffffffffffffffffffffffffffffff1673ffffffffffffffffffffffffffffffffffffffff16815260200190815260200160002060000160009054906101000a900473ffffffffffffffffffffffffffffffffffffffff1673ffffffffffffffffffffffffffffffffffffffff1614610162576040517f08c379a000000000000000000000000000000000000000000000000000000000815260040161015990610911565b60405180910390fd5b60008060008873ffffffffffffffffffffffffffffffffffffffff1673ffffffffffffffffffffffffffffffffffffffff16815260200190815260200160002090508060000160009054906101000a900473ffffffffffffffffffffffffffffffffffffffff1681600101826002018360030160009054906101000a900460ff168460030160019054906101000a900460ff1683805461020190610960565b80601f016020809104026020016040519081016040528092919081815260200182805461022d90610960565b801561027a5780601f1061024f5761010080835404028352916020019161027a565b820191906000526020600020905b81548152906001019060200180831161025d57829003601f168201915b5050505050935082805461028d90610960565b80601f01602080910402602001604051908101604052809291908181526020018280546102b990610960565b80156103065780601f106102db57610100808354040283529160200191610306565b820191906000526020600020905b8154815290600101906020018083116102e957829003601f168201915b50505050509250955095509550955095505091939590929450565b600073ffffffffffffffffffffffffffffffffffffffff166000808573ffffffffffffffffffffffffffffffffffffffff1673ffffffffffffffffffffffffffffffffffffffff16815260200190815260200160002060000160009054906101000a900473ffffffffffffffffffffffffffffffffffffffff1673ffffffffffffffffffffffffffffffffffffffff16146103f1576040517f08c379a00000000000000000000000000000000000000000000000000000000081526004016103e8906109dd565b60405180910390fd5b6040518060a001604052808473ffffffffffffffffffffffffffffffffffffffff168152602001838152602001828152602001600015158152602001600060ff168152506000808573ffffffffffffffffffffffffffffffffffffffff1673ffffffffffffffffffffffffffffffffffffffff16815260200190815260200160002060008201518160000160006101000a81548173ffffffffffffffffffffffffffffffffffffffff021916908373ffffffffffffffffffffffffffffffffffffffff16021790555060208201518160010190816104cf9190610bb3565b5060408201518160020190816104e59190610bb3565b5060608201518160030160006101000a81548160ff02191690831515021790555060808201518160030160016101000a81548160ff021916908360ff160217905550905050505050565b6000604051905090565b600080fd5b600080fd5b600073ffffffffffffffffffffffffffffffffffffffff82169050919050565b600061056e82610543565b9050919050565b61057e81610563565b811461058957600080fd5b50565b60008135905061059b81610575565b92915050565b6000602082840312156105b7576105b6610539565b5b60006105c58482850161058c565b91505092915050565b6105d781610563565b82525050565b600081519050919050565b600082825260208201905092915050565b60005b838110156106175780820151818401526020810190506105fc565b60008484015250505050565b6000601f19601f8301169050919050565b600061063f826105dd565b61064981856105e8565b93506106598185602086016105f9565b61066281610623565b840191505092915050565b60008115159050919050565b6106828161066d565b82525050565b600060ff82169050919050565b61069e81610688565b82525050565b600060a0820190506106b960008301886105ce565b81810360208301526106cb8187610634565b905081810360408301526106df8186610634565b90506106ee6060830185610679565b6106fb6080830184610695565b9695505050505050565b600080fd5b600080fd5b7f4e487b7100000000000000000000000000000000000000000000000000000000600052604160045260246000fd5b61074782610623565b810181811067ffffffffffffffff821117156107665761076561070f565b5b80604052505050565b600061077961052f565b9050610785828261073e565b919050565b600067ffffffffffffffff8211156107a5576107a461070f565b5b6107ae82610623565b9050602081019050919050565b82818337600083830152505050565b60006107dd6107d88461078a565b61076f565b9050828152602081018484840111156107f9576107f861070a565b5b6108048482856107bb565b509392505050565b600082601f83011261082157610820610705565b5b81356108318482602086016107ca565b91505092915050565b60008060006060848603121561085357610852610539565b5b60006108618682870161058c565b935050602084013567ffffffffffffffff8111156108825761088161053e565b5b61088e8682870161080c565b925050604084013567ffffffffffffffff8111156108af576108ae61053e565b5b6108bb8682870161080c565b9150509250925092565b7f55736572204e6f7420466f756e64000000000000000000000000000000000000600082015250565b60006108fb600e836105e8565b9150610906826108c5565b602082019050919050565b6000602082019050818103600083015261092a816108ee565b9050919050565b7f4e487b7100000000000000000000000000000000000000000000000000000000600052602260045260246000fd5b6000600282049050600182168061097857607f821691505b60208210810361098b5761098a610931565b5b50919050565b7f5573657220616c72656164792072656769737465726564210000000000000000600082015250565b60006109c76018836105e8565b91506109d282610991565b602082019050919050565b600060208201905081810360008301526109f6816109ba565b9050919050565b60008190508160005260206000209050919050565b60006020601f8301049050919050565b600082821b905092915050565b600060088302610a5f7fffffffffffffffffffffffffffffffffffffffffffffffffffffffffffffffff82610a22565b610a698683610a22565b95508019841693508086168417925050509392505050565b6000819050919050565b6000819050919050565b6000610ab0610aab610aa684610a81565b610a8b565b610a81565b9050919050565b6000819050919050565b610aca83610a95565b610ade610ad682610ab7565b848454610a2f565b825550505050565b600090565b610af3610ae6565b610afe818484610ac1565b505050565b5b81811015610b2257610b17600082610aeb565b600181019050610b04565b5050565b601f821115610b6757610b38816109fd565b610b4184610a12565b81016020851015610b50578190505b610b64610b5c85610a12565b830182610b03565b50505b505050565b600082821c905092915050565b6000610b8a60001984600802610b6c565b1980831691505092915050565b6000610ba38383610b79565b9150826002028217905092915050565b610bbc826105dd565b67ffffffffffffffff811115610bd557610bd461070f565b5b610bdf8254610960565b610bea828285610b26565b600060209050601f831160018114610c1d5760008415610c0b578287015190505b610c158582610b97565b865550610c7d565b601f198416610c2b866109fd565b60005b82811015610c5357848901518255600182019150602085019450602081019050610c2e565b86831015610c705784890151610c6c601f891682610b79565b8355505b6001600288020188555050505b50505050505056fea2646970667358221220099d2478bbf3d2bc2292cd41be3a78b6ae43103752457077ad8e1ed95e54e85c64736f6c634300081c0033",
  "linkReferences": {},
  "deployedLinkReferences": {}
}