{
  "_format": "hh-sol-artifact-1",
  "contractName": "FamilyWallet",
  "sourceName": "contracts/FamilyWallet.sol",
  "abi": [
    {
      "inputs": [
        {
          "internalType": "address",
          "name": "_usersContractAddress",
          "type": "address"
        }
      ],
      "stateMutability": "nonpayable",
      "type": "constructor"
    },
    {
      "inputs": [
        {
          "internalType": "address",
          "name": "_userAddress",
          "type": "address"
        }
      ],
      "name": "fetchUserDetails",
      "outputs": [
        {
          "internalType": "address",
          "name": "id",
          "type": "address"
        },
        {
          "internalType": "string",
          "name": "username",
          "type": "string"
        },
        {
          "internalType": "string",
          "name": "password",
          "type": "string"
        },
        {
          "internalType": "bool",
          "name": "isParent",
          "type": "bool"
        },
        {
          "internalType": "uint8",
          "name": "familyId",
          "type": "uint8"
        }
      ],
      "stateMutability": "view",
      "type": "function"
    },
    {
      "inputs": [],
      "name": "owner",
      "outputs": [
        {
          "internalType": "address",
          "name": "",
          "type": "address"
        }
      ],
      "stateMutability": "view",
      "type": "function"
    },
    {
      "inputs": [
        {
          "internalType": "address",
          "name": "_account",
          "type": "address"
        },
        {
          "internalType": "string",
          "name": "_username",
          "type": "string"
        },
        {
          "internalType": "string",
          "name": "_password",
          "type": "string"
        }
      ],
      "name": "registerNewUser",
      "outputs": [],
      "stateMutability": "nonpayable",
      "type": "function"
    },
    {
      "inputs": [],
      "name": "usersContract",
      "outputs": [
        {
          "internalType": "contract IUsers",
          "name": "",
          "type": "address"
        }
      ],
      "stateMutability": "view",
      "type": "function"
    }
  ],
  "bytecode": "0x608060405234801561001057600080fd5b50604051610ba9380380610ba9833981810160405281019061003291906101c9565b806000806101000a81548173ffffffffffffffffffffffffffffffffffffffff021916908373ffffffffffffffffffffffffffffffffffffffff16021790555033600160006101000a81548173ffffffffffffffffffffffffffffffffffffffff021916908373ffffffffffffffffffffffffffffffffffffffff16021790555060008054906101000a900473ffffffffffffffffffffffffffffffffffffffff1673ffffffffffffffffffffffffffffffffffffffff1663db0c87c9600160009054906101000a900473ffffffffffffffffffffffffffffffffffffffff166040518263ffffffff1660e01b815260040161012e91906102ae565b600060405180830381600087803b15801561014857600080fd5b505af115801561015c573d6000803e3d6000fd5b50505050506102ef565b600080fd5b600073ffffffffffffffffffffffffffffffffffffffff82169050919050565b60006101968261016b565b9050919050565b6101a68161018b565b81146101b157600080fd5b50565b6000815190506101c38161019d565b92915050565b6000602082840312156101df576101de610166565b5b60006101ed848285016101b4565b91505092915050565b6101ff8161018b565b82525050565b600082825260208201905092915050565b7f7573657200000000000000000000000000000000000000000000000000000000600082015250565b600061024c600483610205565b915061025782610216565b602082019050919050565b7f70617373776f7264000000000000000000000000000000000000000000000000600082015250565b6000610298600883610205565b91506102a382610262565b602082019050919050565b60006060820190506102c360008301846101f6565b81810360208301526102d48161023f565b905081810360408301526102e78161028b565b905092915050565b6108ab806102fe6000396000f3fe608060405234801561001057600080fd5b506004361061004c5760003560e01c8063142ebf3c146100515780635749b2f91461006f5780638da5cb5b1461008b578063ed8af8bd146100a9575b600080fd5b6100596100dd565b60405161006691906102f4565b60405180910390f35b610089600480360381019061008491906104a7565b610101565b005b610093610195565b6040516100a09190610541565b60405180910390f35b6100c360048036038101906100be919061055c565b6101bb565b6040516100d495949392919061063f565b60405180910390f35b60008054906101000a900473ffffffffffffffffffffffffffffffffffffffff1681565b60008054906101000a900473ffffffffffffffffffffffffffffffffffffffff1673ffffffffffffffffffffffffffffffffffffffff1663db0c87c98484846040518463ffffffff1660e01b815260040161015e939291906106a0565b600060405180830381600087803b15801561017857600080fd5b505af115801561018c573d6000803e3d6000fd5b50505050505050565b600160009054906101000a900473ffffffffffffffffffffffffffffffffffffffff1681565b600060608060008060008054906101000a900473ffffffffffffffffffffffffffffffffffffffff1673ffffffffffffffffffffffffffffffffffffffff16636f77926b876040518263ffffffff1660e01b815260040161021c9190610541565b600060405180830381865afa158015610239573d6000803e3d6000fd5b505050506040513d6000823e3d601f19601f8201168201806040525081019061026291906107c2565b9450945094509450945091939590929450565b600073ffffffffffffffffffffffffffffffffffffffff82169050919050565b6000819050919050565b60006102ba6102b56102b084610275565b610295565b610275565b9050919050565b60006102cc8261029f565b9050919050565b60006102de826102c1565b9050919050565b6102ee816102d3565b82525050565b600060208201905061030960008301846102e5565b92915050565b6000604051905090565b600080fd5b600080fd5b600061032e82610275565b9050919050565b61033e81610323565b811461034957600080fd5b50565b60008135905061035b81610335565b92915050565b600080fd5b600080fd5b6000601f19601f8301169050919050565b7f4e487b7100000000000000000000000000000000000000000000000000000000600052604160045260246000fd5b6103b48261036b565b810181811067ffffffffffffffff821117156103d3576103d261037c565b5b80604052505050565b60006103e661030f565b90506103f282826103ab565b919050565b600067ffffffffffffffff8211156104125761041161037c565b5b61041b8261036b565b9050602081019050919050565b82818337600083830152505050565b600061044a610445846103f7565b6103dc565b90508281526020810184848401111561046657610465610366565b5b610471848285610428565b509392505050565b600082601f83011261048e5761048d610361565b5b813561049e848260208601610437565b91505092915050565b6000806000606084860312156104c0576104bf610319565b5b60006104ce8682870161034c565b935050602084013567ffffffffffffffff8111156104ef576104ee61031e565b5b6104fb86828701610479565b925050604084013567ffffffffffffffff81111561051c5761051b61031e565b5b61052886828701610479565b9150509250925092565b61053b81610323565b82525050565b60006020820190506105566000830184610532565b92915050565b60006020828403121561057257610571610319565b5b60006105808482850161034c565b91505092915050565b600081519050919050565b600082825260208201905092915050565b60005b838110156105c35780820151818401526020810190506105a8565b60008484015250505050565b60006105da82610589565b6105e48185610594565b93506105f48185602086016105a5565b6105fd8161036b565b840191505092915050565b60008115159050919050565b61061d81610608565b82525050565b600060ff82169050919050565b61063981610623565b82525050565b600060a0820190506106546000830188610532565b818103602083015261066681876105cf565b9050818103604083015261067a81866105cf565b90506106896060830185610614565b6106966080830184610630565b9695505050505050565b60006060820190506106b56000830186610532565b81810360208301526106c781856105cf565b905081810360408301526106db81846105cf565b9050949350505050565b6000815190506106f481610335565b92915050565b600061070d610708846103f7565b6103dc565b90508281526020810184848401111561072957610728610366565b5b6107348482856105a5565b509392505050565b600082601f83011261075157610750610361565b5b81516107618482602086016106fa565b91505092915050565b61077381610608565b811461077e57600080fd5b50565b6000815190506107908161076a565b92915050565b61079f81610623565b81146107aa57600080fd5b50565b6000815190506107bc81610796565b92915050565b600080600080600060a086880312156107de576107dd610319565b5b60006107ec888289016106e5565b955050602086015167ffffffffffffffff81111561080d5761080c61031e565b5b6108198882890161073c565b945050604086015167ffffffffffffffff81111561083a5761083961031e565b5b6108468882890161073c565b935050606061085788828901610781565b9250506080610868888289016107ad565b915050929550929590935056fea2646970667358221220de2a11cb718229da50334348bc0f64b870a8e84c567879ad7b575f2f1177801a64736f6c634300081c0033",
  "linkReferences": {},
  "deployedLinkReferences": {}
}