{
  "_format": "hh-sol-artifact-1",
  "contractName": "FamilyWallet",
  "sourceName": "contracts/FamilyWallet.sol",
  "abi": [
    {
      "inputs": [],
      "stateMutability": "nonpayable",
      "type": "constructor"
    },
    {
      "inputs": [
        {
          "internalType": "address",
          "name": "spender",
          "type": "address"
        },
        {
          "internalType": "uint256",
          "name": "allowance",
          "type": "uint256"
        },
        {
          "internalType": "uint256",
          "name": "needed",
          "type": "uint256"
        }
      ],
      "name": "ERC20InsufficientAllowance",
      "type": "error"
    },
    {
      "inputs": [
        {
          "internalType": "address",
          "name": "sender",
          "type": "address"
        },
        {
          "internalType": "uint256",
          "name": "balance",
          "type": "uint256"
        },
        {
          "internalType": "uint256",
          "name": "needed",
          "type": "uint256"
        }
      ],
      "name": "ERC20InsufficientBalance",
      "type": "error"
    },
    {
      "inputs": [
        {
          "internalType": "address",
          "name": "approver",
          "type": "address"
        }
      ],
      "name": "ERC20InvalidApprover",
      "type": "error"
    },
    {
      "inputs": [
        {
          "internalType": "address",
          "name": "receiver",
          "type": "address"
        }
      ],
      "name": "ERC20InvalidReceiver",
      "type": "error"
    },
    {
      "inputs": [
        {
          "internalType": "address",
          "name": "sender",
          "type": "address"
        }
      ],
      "name": "ERC20InvalidSender",
      "type": "error"
    },
    {
      "inputs": [
        {
          "internalType": "address",
          "name": "spender",
          "type": "address"
        }
      ],
      "name": "ERC20InvalidSpender",
      "type": "error"
    },
    {
      "anonymous": false,
      "inputs": [
        {
          "indexed": true,
          "internalType": "address",
          "name": "owner",
          "type": "address"
        },
        {
          "indexed": true,
          "internalType": "address",
          "name": "spender",
          "type": "address"
        },
        {
          "indexed": false,
          "internalType": "uint256",
          "name": "value",
          "type": "uint256"
        }
      ],
      "name": "Approval",
      "type": "event"
    },
    {
      "anonymous": false,
      "inputs": [
        {
          "indexed": true,
          "internalType": "address",
          "name": "from",
          "type": "address"
        },
        {
          "indexed": true,
          "internalType": "address",
          "name": "to",
          "type": "address"
        },
        {
          "indexed": false,
          "internalType": "uint256",
          "name": "value",
          "type": "uint256"
        }
      ],
      "name": "Transfer",
      "type": "event"
    },
    {
      "inputs": [
        {
          "internalType": "address",
          "name": "_account",
          "type": "address"
        },
        {
          "internalType": "bool",
          "name": "_isParent",
          "type": "bool"
        }
      ],
      "name": "addMember",
      "outputs": [],
      "stateMutability": "nonpayable",
      "type": "function"
    },
    {
      "inputs": [
        {
          "internalType": "address",
          "name": "owner",
          "type": "address"
        },
        {
          "internalType": "address",
          "name": "spender",
          "type": "address"
        }
      ],
      "name": "allowance",
      "outputs": [
        {
          "internalType": "uint256",
          "name": "",
          "type": "uint256"
        }
      ],
      "stateMutability": "view",
      "type": "function"
    },
    {
      "inputs": [
        {
          "internalType": "address",
          "name": "spender",
          "type": "address"
        },
        {
          "internalType": "uint256",
          "name": "value",
          "type": "uint256"
        }
      ],
      "name": "approve",
      "outputs": [
        {
          "internalType": "bool",
          "name": "",
          "type": "bool"
        }
      ],
      "stateMutability": "nonpayable",
      "type": "function"
    },
    {
      "inputs": [
        {
          "internalType": "uint32",
          "name": "_transactionId",
          "type": "uint32"
        },
        {
          "internalType": "bool",
          "name": "_approved",
          "type": "bool"
        }
      ],
      "name": "approveOrRejectTxn",
      "outputs": [
        {
          "internalType": "bool",
          "name": "",
          "type": "bool"
        }
      ],
      "stateMutability": "nonpayable",
      "type": "function"
    },
    {
      "inputs": [
        {
          "internalType": "address",
          "name": "account",
          "type": "address"
        }
      ],
      "name": "balanceOf",
      "outputs": [
        {
          "internalType": "uint256",
          "name": "",
          "type": "uint256"
        }
      ],
      "stateMutability": "view",
      "type": "function"
    },
    {
      "inputs": [],
      "name": "decimals",
      "outputs": [
        {
          "internalType": "uint8",
          "name": "",
          "type": "uint8"
        }
      ],
      "stateMutability": "view",
      "type": "function"
    },
    {
      "inputs": [],
      "name": "getTransactions",
      "outputs": [
        {
          "components": [
            {
              "internalType": "uint32",
              "name": "id",
              "type": "uint32"
            },
            {
              "internalType": "address",
              "name": "from",
              "type": "address"
            },
            {
              "internalType": "address",
              "name": "to",
              "type": "address"
            },
            {
              "internalType": "uint32",
              "name": "amount",
              "type": "uint32"
            },
            {
              "internalType": "uint256",
              "name": "date",
              "type": "uint256"
            },
            {
              "internalType": "string",
              "name": "purpose",
              "type": "string"
            },
            {
              "internalType": "string",
              "name": "status",
              "type": "string"
            }
          ],
          "internalType": "struct FamilyWallet.Txn[]",
          "name": "",
          "type": "tuple[]"
        }
      ],
      "stateMutability": "view",
      "type": "function"
    },
    {
      "inputs": [
        {
          "internalType": "address",
          "name": "_userAddress",
          "type": "address"
        }
      ],
      "name": "getUser",
      "outputs": [
        {
          "internalType": "address",
          "name": "id",
          "type": "address"
        },
        {
          "internalType": "address",
          "name": "username",
          "type": "address"
        },
        {
          "internalType": "string",
          "name": "password",
          "type": "string"
        },
        {
          "internalType": "bool",
          "name": "isParent",
          "type": "bool"
        },
        {
          "internalType": "uint8",
          "name": "familyId",
          "type": "uint8"
        }
      ],
      "stateMutability": "view",
      "type": "function"
    },
    {
      "inputs": [
        {
          "internalType": "address",
          "name": "_to",
          "type": "address"
        },
        {
          "internalType": "uint32",
          "name": "_amountToSend",
          "type": "uint32"
        },
        {
          "internalType": "string",
          "name": "_purpose",
          "type": "string"
        }
      ],
      "name": "makePayment",
      "outputs": [],
      "stateMutability": "nonpayable",
      "type": "function"
    },
    {
      "inputs": [
        {
          "internalType": "address",
          "name": "account",
          "type": "address"
        },
        {
          "internalType": "uint256",
          "name": "amount",
          "type": "uint256"
        }
      ],
      "name": "mint",
      "outputs": [],
      "stateMutability": "nonpayable",
      "type": "function"
    },
    {
      "inputs": [],
      "name": "name",
      "outputs": [
        {
          "internalType": "string",
          "name": "",
          "type": "string"
        }
      ],
      "stateMutability": "view",
      "type": "function"
    },
    {
      "inputs": [
        {
          "internalType": "address",
          "name": "_account",
          "type": "address"
        },
        {
          "internalType": "string",
          "name": "_password",
          "type": "string"
        }
      ],
      "name": "registerUser",
      "outputs": [],
      "stateMutability": "nonpayable",
      "type": "function"
    },
    {
      "inputs": [],
      "name": "symbol",
      "outputs": [
        {
          "internalType": "string",
          "name": "",
          "type": "string"
        }
      ],
      "stateMutability": "view",
      "type": "function"
    },
    {
      "inputs": [],
      "name": "totalSupply",
      "outputs": [
        {
          "internalType": "uint256",
          "name": "",
          "type": "uint256"
        }
      ],
      "stateMutability": "view",
      "type": "function"
    },
    {
      "inputs": [
        {
          "internalType": "uint256",
          "name": "",
          "type": "uint256"
        }
      ],
      "name": "transactions",
      "outputs": [
        {
          "internalType": "uint32",
          "name": "id",
          "type": "uint32"
        },
        {
          "internalType": "address",
          "name": "from",
          "type": "address"
        },
        {
          "internalType": "address",
          "name": "to",
          "type": "address"
        },
        {
          "internalType": "uint32",
          "name": "amount",
          "type": "uint32"
        },
        {
          "internalType": "uint256",
          "name": "date",
          "type": "uint256"
        },
        {
          "internalType": "string",
          "name": "purpose",
          "type": "string"
        },
        {
          "internalType": "string",
          "name": "status",
          "type": "string"
        }
      ],
      "stateMutability": "view",
      "type": "function"
    },
    {
      "inputs": [
        {
          "internalType": "address",
          "name": "to",
          "type": "address"
        },
        {
          "internalType": "uint256",
          "name": "value",
          "type": "uint256"
        }
      ],
      "name": "transfer",
      "outputs": [
        {
          "internalType": "bool",
          "name": "",
          "type": "bool"
        }
      ],
      "stateMutability": "nonpayable",
      "type": "function"
    },
    {
      "inputs": [
        {
          "internalType": "address",
          "name": "from",
          "type": "address"
        },
        {
          "internalType": "address",
          "name": "to",
          "type": "address"
        },
        {
          "internalType": "uint256",
          "name": "value",
          "type": "uint256"
        }
      ],
      "name": "transferFrom",
      "outputs": [
        {
          "internalType": "bool",
          "name": "",
          "type": "bool"
        }
      ],
      "stateMutability": "nonpayable",
      "type": "function"
    }
  ],
  "bytecode": "0x608060405234801561001057600080fd5b50336040518060400160405280600d81526020017f46616d696c792057616c6c6574000000000000000000000000000000000000008152506040518060400160405280600381526020017f46414d0000000000000000000000000000000000000000000000000000000000815250816003908161008d919061076a565b50806004908161009d919061076a565b5050506040518060a001604052808273ffffffffffffffffffffffffffffffffffffffff1681526020018273ffffffffffffffffffffffffffffffffffffffff1681526020016040518060400160405280600881526020017f70617373776f72640000000000000000000000000000000000000000000000008152508152602001600115158152602001600160ff16815250600560008373ffffffffffffffffffffffffffffffffffffffff1673ffffffffffffffffffffffffffffffffffffffff16815260200190815260200160002060008201518160000160006101000a81548173ffffffffffffffffffffffffffffffffffffffff021916908373ffffffffffffffffffffffffffffffffffffffff16021790555060208201518160010160006101000a81548173ffffffffffffffffffffffffffffffffffffffff021916908373ffffffffffffffffffffffffffffffffffffffff1602179055506040820151816002019081610211919061076a565b5060608201518160030160006101000a81548160ff02191690831515021790555060808201518160030160016101000a81548160ff021916908360ff1602179055509050505061026833606461026d60201b60201c565b61095c565b600073ffffffffffffffffffffffffffffffffffffffff168273ffffffffffffffffffffffffffffffffffffffff16036102df5760006040517fec442f050000000000000000000000000000000000000000000000000000000081526004016102d6919061087d565b60405180910390fd5b6102f1600083836102f560201b60201c565b5050565b600073ffffffffffffffffffffffffffffffffffffffff168373ffffffffffffffffffffffffffffffffffffffff160361034757806002600082825461033b91906108c7565b9250508190555061041a565b60008060008573ffffffffffffffffffffffffffffffffffffffff1673ffffffffffffffffffffffffffffffffffffffff168152602001908152602001600020549050818110156103d3578381836040517fe450d38c0000000000000000000000000000000000000000000000000000000081526004016103ca9392919061090a565b60405180910390fd5b8181036000808673ffffffffffffffffffffffffffffffffffffffff1673ffffffffffffffffffffffffffffffffffffffff16815260200190815260200160002081905550505b600073ffffffffffffffffffffffffffffffffffffffff168273ffffffffffffffffffffffffffffffffffffffff160361046357806002600082825403925050819055506104b0565b806000808473ffffffffffffffffffffffffffffffffffffffff1673ffffffffffffffffffffffffffffffffffffffff168152602001908152602001600020600082825401925050819055505b8173ffffffffffffffffffffffffffffffffffffffff168373ffffffffffffffffffffffffffffffffffffffff167fddf252ad1be2c89b69c2b068fc378daa952ba7f163c4a11628f55a4df523b3ef8360405161050d9190610941565b60405180910390a3505050565b600081519050919050565b7f4e487b7100000000000000000000000000000000000000000000000000000000600052604160045260246000fd5b7f4e487b7100000000000000000000000000000000000000000000000000000000600052602260045260246000fd5b6000600282049050600182168061059b57607f821691505b6020821081036105ae576105ad610554565b5b50919050565b60008190508160005260206000209050919050565b60006020601f8301049050919050565b600082821b905092915050565b6000600883026106167fffffffffffffffffffffffffffffffffffffffffffffffffffffffffffffffff826105d9565b61062086836105d9565b95508019841693508086168417925050509392505050565b6000819050919050565b6000819050919050565b600061066761066261065d84610638565b610642565b610638565b9050919050565b6000819050919050565b6106818361064c565b61069561068d8261066e565b8484546105e6565b825550505050565b600090565b6106aa61069d565b6106b5818484610678565b505050565b5b818110156106d9576106ce6000826106a2565b6001810190506106bb565b5050565b601f82111561071e576106ef816105b4565b6106f8846105c9565b81016020851015610707578190505b61071b610713856105c9565b8301826106ba565b50505b505050565b600082821c905092915050565b600061074160001984600802610723565b1980831691505092915050565b600061075a8383610730565b9150826002028217905092915050565b6107738261051a565b67ffffffffffffffff81111561078c5761078b610525565b5b6107968254610583565b6107a18282856106dd565b600060209050601f8311600181146107d457600084156107c2578287015190505b6107cc858261074e565b865550610834565b601f1984166107e2866105b4565b60005b8281101561080a578489015182556001820191506020850194506020810190506107e5565b868310156108275784890151610823601f891682610730565b8355505b6001600288020188555050505b505050505050565b600073ffffffffffffffffffffffffffffffffffffffff82169050919050565b60006108678261083c565b9050919050565b6108778161085c565b82525050565b6000602082019050610892600083018461086e565b92915050565b7f4e487b7100000000000000000000000000000000000000000000000000000000600052601160045260246000fd5b60006108d282610638565b91506108dd83610638565b92508282019050808211156108f5576108f4610898565b5b92915050565b61090481610638565b82525050565b600060608201905061091f600083018661086e565b61092c60208301856108fb565b61093960408301846108fb565b949350505050565b600060208201905061095660008301846108fb565b92915050565b612d878061096b6000396000f3fe608060405234801561001057600080fd5b506004361061010b5760003560e01c80636f77926b116100a25780639ace38c2116100715780639ace38c2146102d25780639dc5dc5314610308578063a9059cbb14610324578063c9030ea014610354578063dd62ed3e146103705761010b565b80636f77926b1461023257806370a082311461026657806383920e901461029657806395d89b41146102b45761010b565b806318160ddd116100de57806318160ddd146101aa57806323b872dd146101c8578063313ce567146101f857806340c10f19146102165761010b565b806306fdde0314610110578063095ea7b31461012e5780630a49bb1b1461015e5780630ea126f91461018e575b600080fd5b6101186103a0565b6040516101259190611e60565b60405180910390f35b61014860048036038101906101439190611f2a565b610432565b6040516101559190611f85565b60405180910390f35b61017860048036038101906101739190612008565b610455565b6040516101859190611f85565b60405180910390f35b6101a860048036038101906101a3919061217d565b610856565b005b6101b2610aac565b6040516101bf91906121e8565b60405180910390f35b6101e260048036038101906101dd9190612203565b610ab6565b6040516101ef9190611f85565b60405180910390f35b610200610ae5565b60405161020d9190612272565b60405180910390f35b610230600480360381019061022b9190611f2a565b610aee565b005b61024c6004803603810190610247919061228d565b610b55565b60405161025d9594939291906122c9565b60405180910390f35b610280600480360381019061027b919061228d565b610d82565b60405161028d91906121e8565b60405180910390f35b61029e610dca565b6040516102ab91906124ff565b60405180910390f35b6102bc61104f565b6040516102c99190611e60565b60405180910390f35b6102ec60048036038101906102e79190612521565b6110e1565b6040516102ff979695949392919061255d565b60405180910390f35b610322600480360381019061031d91906125da565b6112a3565b005b61033e60048036038101906103399190611f2a565b61149e565b60405161034b9190611f85565b60405180910390f35b61036e60048036038101906103699190612649565b6114c1565b005b61038a60048036038101906103859190612689565b611729565b60405161039791906121e8565b60405180910390f35b6060600380546103af906126f8565b80601f01602080910402602001604051908101604052809291908181526020018280546103db906126f8565b80156104285780601f106103fd57610100808354040283529160200191610428565b820191906000526020600020905b81548152906001019060200180831161040b57829003601f168201915b5050505050905090565b60008061043d6117b0565b905061044a8185856117b8565b600191505092915050565b60008061046133610b55565b50935050505060011515811515146104ae576040517f08c379a00000000000000000000000000000000000000000000000000000000081526004016104a59061279b565b60405180910390fd5b600060066001866104bf91906127ea565b63ffffffff16815481106104d6576104d5612822565b5b90600052602060002090600502016040518060e00160405290816000820160009054906101000a900463ffffffff1663ffffffff1663ffffffff1681526020016000820160049054906101000a900473ffffffffffffffffffffffffffffffffffffffff1673ffffffffffffffffffffffffffffffffffffffff1673ffffffffffffffffffffffffffffffffffffffff1681526020016001820160009054906101000a900473ffffffffffffffffffffffffffffffffffffffff1673ffffffffffffffffffffffffffffffffffffffff1673ffffffffffffffffffffffffffffffffffffffff1681526020016001820160149054906101000a900463ffffffff1663ffffffff1663ffffffff16815260200160028201548152602001600382018054610601906126f8565b80601f016020809104026020016040519081016040528092919081815260200182805461062d906126f8565b801561067a5780601f1061064f5761010080835404028352916020019161067a565b820191906000526020600020905b81548152906001019060200180831161065d57829003601f168201915b50505050508152602001600482018054610693906126f8565b80601f01602080910402602001604051908101604052809291908181526020018280546106bf906126f8565b801561070c5780601f106106e15761010080835404028352916020019161070c565b820191906000526020600020905b8154815290600101906020018083116106ef57829003601f168201915b505050505081525050905083156107cf5760006107378260400151836060015163ffffffff1661149e565b905080156107c4576040518060400160405280600881526020017f617070726f766564000000000000000000000000000000000000000000000000815250600660018861078491906127ea565b63ffffffff168154811061079b5761079a612822565b5b906000526020600020906005020160040190816107b891906129fd565b5060019350505061084f565b60009350505061084f565b6040518060400160405280600881526020017f72656a6563746564000000000000000000000000000000000000000000000000815250600660018761081491906127ea565b63ffffffff168154811061082b5761082a612822565b5b9060005260206000209060050201600401908161084891906129fd565b5060019250505b5092915050565b600073ffffffffffffffffffffffffffffffffffffffff16600560008473ffffffffffffffffffffffffffffffffffffffff1673ffffffffffffffffffffffffffffffffffffffff16815260200190815260200160002060000160009054906101000a900473ffffffffffffffffffffffffffffffffffffffff1673ffffffffffffffffffffffffffffffffffffffff1614610927576040517f08c379a000000000000000000000000000000000000000000000000000000000815260040161091e90612b1b565b60405180910390fd5b6040518060a001604052808373ffffffffffffffffffffffffffffffffffffffff1681526020018373ffffffffffffffffffffffffffffffffffffffff168152602001828152602001600015158152602001600060ff16815250600560008473ffffffffffffffffffffffffffffffffffffffff1673ffffffffffffffffffffffffffffffffffffffff16815260200190815260200160002060008201518160000160006101000a81548173ffffffffffffffffffffffffffffffffffffffff021916908373ffffffffffffffffffffffffffffffffffffffff16021790555060208201518160010160006101000a81548173ffffffffffffffffffffffffffffffffffffffff021916908373ffffffffffffffffffffffffffffffffffffffff1602179055506040820151816002019081610a6391906129fd565b5060608201518160030160006101000a81548160ff02191690831515021790555060808201518160030160016101000a81548160ff021916908360ff1602179055509050505050565b6000600254905090565b600080610ac16117b0565b9050610ace8582856117ca565b610ad985858561185e565b60019150509392505050565b60006012905090565b6000610af933610b55565b5093505050506001151581151514610b46576040517f08c379a0000000000000000000000000000000000000000000000000000000008152600401610b3d9061279b565b60405180910390fd5b610b508383611952565b505050565b60008060606000808573ffffffffffffffffffffffffffffffffffffffff16600560008873ffffffffffffffffffffffffffffffffffffffff1673ffffffffffffffffffffffffffffffffffffffff16815260200190815260200160002060000160009054906101000a900473ffffffffffffffffffffffffffffffffffffffff1673ffffffffffffffffffffffffffffffffffffffff1614610c2d576040517f08c379a0000000000000000000000000000000000000000000000000000000008152600401610c2490612b87565b60405180910390fd5b6000600560008873ffffffffffffffffffffffffffffffffffffffff1673ffffffffffffffffffffffffffffffffffffffff16815260200190815260200160002090508060000160009054906101000a900473ffffffffffffffffffffffffffffffffffffffff168160010160009054906101000a900473ffffffffffffffffffffffffffffffffffffffff16826002018360030160009054906101000a900460ff168460030160019054906101000a900460ff16828054610cee906126f8565b80601f0160208091040260200160405190810160405280929190818152602001828054610d1a906126f8565b8015610d675780601f10610d3c57610100808354040283529160200191610d67565b820191906000526020600020905b815481529060010190602001808311610d4a57829003601f168201915b50505050509250955095509550955095505091939590929450565b60008060008373ffffffffffffffffffffffffffffffffffffffff1673ffffffffffffffffffffffffffffffffffffffff168152602001908152602001600020549050919050565b60606006805480602002602001604051908101604052809291908181526020016000905b8282101561104657838290600052602060002090600502016040518060e00160405290816000820160009054906101000a900463ffffffff1663ffffffff1663ffffffff1681526020016000820160049054906101000a900473ffffffffffffffffffffffffffffffffffffffff1673ffffffffffffffffffffffffffffffffffffffff1673ffffffffffffffffffffffffffffffffffffffff1681526020016001820160009054906101000a900473ffffffffffffffffffffffffffffffffffffffff1673ffffffffffffffffffffffffffffffffffffffff1673ffffffffffffffffffffffffffffffffffffffff1681526020016001820160149054906101000a900463ffffffff1663ffffffff1663ffffffff16815260200160028201548152602001600382018054610f23906126f8565b80601f0160208091040260200160405190810160405280929190818152602001828054610f4f906126f8565b8015610f9c5780601f10610f7157610100808354040283529160200191610f9c565b820191906000526020600020905b815481529060010190602001808311610f7f57829003601f168201915b50505050508152602001600482018054610fb5906126f8565b80601f0160208091040260200160405190810160405280929190818152602001828054610fe1906126f8565b801561102e5780601f106110035761010080835404028352916020019161102e565b820191906000526020600020905b81548152906001019060200180831161101157829003601f168201915b50505050508152505081526020019060010190610dee565b50505050905090565b60606004805461105e906126f8565b80601f016020809104026020016040519081016040528092919081815260200182805461108a906126f8565b80156110d75780601f106110ac576101008083540402835291602001916110d7565b820191906000526020600020905b8154815290600101906020018083116110ba57829003601f168201915b5050505050905090565b600681815481106110f157600080fd5b90600052602060002090600502016000915090508060000160009054906101000a900463ffffffff16908060000160049054906101000a900473ffffffffffffffffffffffffffffffffffffffff16908060010160009054906101000a900473ffffffffffffffffffffffffffffffffffffffff16908060010160149054906101000a900463ffffffff1690806002015490806003018054611192906126f8565b80601f01602080910402602001604051908101604052809291908181526020018280546111be906126f8565b801561120b5780601f106111e05761010080835404028352916020019161120b565b820191906000526020600020905b8154815290600101906020018083116111ee57829003601f168201915b505050505090806004018054611220906126f8565b80601f016020809104026020016040519081016040528092919081815260200182805461124c906126f8565b80156112995780601f1061126e57610100808354040283529160200191611299565b820191906000526020600020905b81548152906001019060200180831161127c57829003601f168201915b5050505050905087565b60006040518060e0016040528060016006805490506112c29190612ba7565b63ffffffff1681526020013373ffffffffffffffffffffffffffffffffffffffff1681526020018573ffffffffffffffffffffffffffffffffffffffff1681526020018463ffffffff1681526020014281526020018381526020016040518060400160405280601081526020017f70656e64696e6720617070726f76616c000000000000000000000000000000008152508152509050600681908060018154018082558091505060019003906000526020600020906005020160009091909190915060008201518160000160006101000a81548163ffffffff021916908363ffffffff16021790555060208201518160000160046101000a81548173ffffffffffffffffffffffffffffffffffffffff021916908373ffffffffffffffffffffffffffffffffffffffff16021790555060408201518160010160006101000a81548173ffffffffffffffffffffffffffffffffffffffff021916908373ffffffffffffffffffffffffffffffffffffffff16021790555060608201518160010160146101000a81548163ffffffff021916908363ffffffff1602179055506080820151816002015560a082015181600301908161147f91906129fd565b5060c082015181600401908161149591906129fd565b50505050505050565b6000806114a96117b0565b90506114b681858561185e565b600191505092915050565b600560003373ffffffffffffffffffffffffffffffffffffffff1673ffffffffffffffffffffffffffffffffffffffff16815260200190815260200160002060030160009054906101000a900460ff16611550576040517f08c379a000000000000000000000000000000000000000000000000000000000815260040161154790612c27565b60405180910390fd5b600073ffffffffffffffffffffffffffffffffffffffff16600560008473ffffffffffffffffffffffffffffffffffffffff1673ffffffffffffffffffffffffffffffffffffffff16815260200190815260200160002060000160009054906101000a900473ffffffffffffffffffffffffffffffffffffffff1673ffffffffffffffffffffffffffffffffffffffff1603611621576040517f08c379a000000000000000000000000000000000000000000000000000000000815260040161161890612cdf565b60405180910390fd5b600560003373ffffffffffffffffffffffffffffffffffffffff1673ffffffffffffffffffffffffffffffffffffffff16815260200190815260200160002060030160019054906101000a900460ff16600560008473ffffffffffffffffffffffffffffffffffffffff1673ffffffffffffffffffffffffffffffffffffffff16815260200190815260200160002060030160016101000a81548160ff021916908360ff16021790555080600560008473ffffffffffffffffffffffffffffffffffffffff1673ffffffffffffffffffffffffffffffffffffffff16815260200190815260200160002060030160006101000a81548160ff0219169083151502179055505050565b6000600160008473ffffffffffffffffffffffffffffffffffffffff1673ffffffffffffffffffffffffffffffffffffffff16815260200190815260200160002060008373ffffffffffffffffffffffffffffffffffffffff1673ffffffffffffffffffffffffffffffffffffffff16815260200190815260200160002054905092915050565b600033905090565b6117c583838360016119d4565b505050565b60006117d68484611729565b90507fffffffffffffffffffffffffffffffffffffffffffffffffffffffffffffffff81146118585781811015611848578281836040517ffb8f41b200000000000000000000000000000000000000000000000000000000815260040161183f93929190612cff565b60405180910390fd5b611857848484840360006119d4565b5b50505050565b600073ffffffffffffffffffffffffffffffffffffffff168373ffffffffffffffffffffffffffffffffffffffff16036118d05760006040517f96c6fd1e0000000000000000000000000000000000000000000000000000000081526004016118c79190612d36565b60405180910390fd5b600073ffffffffffffffffffffffffffffffffffffffff168273ffffffffffffffffffffffffffffffffffffffff16036119425760006040517fec442f050000000000000000000000000000000000000000000000000000000081526004016119399190612d36565b60405180910390fd5b61194d838383611bab565b505050565b600073ffffffffffffffffffffffffffffffffffffffff168273ffffffffffffffffffffffffffffffffffffffff16036119c45760006040517fec442f050000000000000000000000000000000000000000000000000000000081526004016119bb9190612d36565b60405180910390fd5b6119d060008383611bab565b5050565b600073ffffffffffffffffffffffffffffffffffffffff168473ffffffffffffffffffffffffffffffffffffffff1603611a465760006040517fe602df05000000000000000000000000000000000000000000000000000000008152600401611a3d9190612d36565b60405180910390fd5b600073ffffffffffffffffffffffffffffffffffffffff168373ffffffffffffffffffffffffffffffffffffffff1603611ab85760006040517f94280d62000000000000000000000000000000000000000000000000000000008152600401611aaf9190612d36565b60405180910390fd5b81600160008673ffffffffffffffffffffffffffffffffffffffff1673ffffffffffffffffffffffffffffffffffffffff16815260200190815260200160002060008573ffffffffffffffffffffffffffffffffffffffff1673ffffffffffffffffffffffffffffffffffffffff168152602001908152602001600020819055508015611ba5578273ffffffffffffffffffffffffffffffffffffffff168473ffffffffffffffffffffffffffffffffffffffff167f8c5be1e5ebec7d5bd14f71427d1e84f3dd0314c0f7b2291e5b200ac8c7c3b92584604051611b9c91906121e8565b60405180910390a35b50505050565b600073ffffffffffffffffffffffffffffffffffffffff168373ffffffffffffffffffffffffffffffffffffffff1603611bfd578060026000828254611bf19190612ba7565b92505081905550611cd0565b60008060008573ffffffffffffffffffffffffffffffffffffffff1673ffffffffffffffffffffffffffffffffffffffff16815260200190815260200160002054905081811015611c89578381836040517fe450d38c000000000000000000000000000000000000000000000000000000008152600401611c8093929190612cff565b60405180910390fd5b8181036000808673ffffffffffffffffffffffffffffffffffffffff1673ffffffffffffffffffffffffffffffffffffffff16815260200190815260200160002081905550505b600073ffffffffffffffffffffffffffffffffffffffff168273ffffffffffffffffffffffffffffffffffffffff1603611d195780600260008282540392505081905550611d66565b806000808473ffffffffffffffffffffffffffffffffffffffff1673ffffffffffffffffffffffffffffffffffffffff168152602001908152602001600020600082825401925050819055505b8173ffffffffffffffffffffffffffffffffffffffff168373ffffffffffffffffffffffffffffffffffffffff167fddf252ad1be2c89b69c2b068fc378daa952ba7f163c4a11628f55a4df523b3ef83604051611dc391906121e8565b60405180910390a3505050565b600081519050919050565b600082825260208201905092915050565b60005b83811015611e0a578082015181840152602081019050611def565b60008484015250505050565b6000601f19601f8301169050919050565b6000611e3282611dd0565b611e3c8185611ddb565b9350611e4c818560208601611dec565b611e5581611e16565b840191505092915050565b60006020820190508181036000830152611e7a8184611e27565b905092915050565b6000604051905090565b600080fd5b600080fd5b600073ffffffffffffffffffffffffffffffffffffffff82169050919050565b6000611ec182611e96565b9050919050565b611ed181611eb6565b8114611edc57600080fd5b50565b600081359050611eee81611ec8565b92915050565b6000819050919050565b611f0781611ef4565b8114611f1257600080fd5b50565b600081359050611f2481611efe565b92915050565b60008060408385031215611f4157611f40611e8c565b5b6000611f4f85828601611edf565b9250506020611f6085828601611f15565b9150509250929050565b60008115159050919050565b611f7f81611f6a565b82525050565b6000602082019050611f9a6000830184611f76565b92915050565b600063ffffffff82169050919050565b611fb981611fa0565b8114611fc457600080fd5b50565b600081359050611fd681611fb0565b92915050565b611fe581611f6a565b8114611ff057600080fd5b50565b60008135905061200281611fdc565b92915050565b6000806040838503121561201f5761201e611e8c565b5b600061202d85828601611fc7565b925050602061203e85828601611ff3565b9150509250929050565b600080fd5b600080fd5b7f4e487b7100000000000000000000000000000000000000000000000000000000600052604160045260246000fd5b61208a82611e16565b810181811067ffffffffffffffff821117156120a9576120a8612052565b5b80604052505050565b60006120bc611e82565b90506120c88282612081565b919050565b600067ffffffffffffffff8211156120e8576120e7612052565b5b6120f182611e16565b9050602081019050919050565b82818337600083830152505050565b600061212061211b846120cd565b6120b2565b90508281526020810184848401111561213c5761213b61204d565b5b6121478482856120fe565b509392505050565b600082601f83011261216457612163612048565b5b813561217484826020860161210d565b91505092915050565b6000806040838503121561219457612193611e8c565b5b60006121a285828601611edf565b925050602083013567ffffffffffffffff8111156121c3576121c2611e91565b5b6121cf8582860161214f565b9150509250929050565b6121e281611ef4565b82525050565b60006020820190506121fd60008301846121d9565b92915050565b60008060006060848603121561221c5761221b611e8c565b5b600061222a86828701611edf565b935050602061223b86828701611edf565b925050604061224c86828701611f15565b9150509250925092565b600060ff82169050919050565b61226c81612256565b82525050565b60006020820190506122876000830184612263565b92915050565b6000602082840312156122a3576122a2611e8c565b5b60006122b184828501611edf565b91505092915050565b6122c381611eb6565b82525050565b600060a0820190506122de60008301886122ba565b6122eb60208301876122ba565b81810360408301526122fd8186611e27565b905061230c6060830185611f76565b6123196080830184612263565b9695505050505050565b600081519050919050565b600082825260208201905092915050565b6000819050602082019050919050565b61235881611fa0565b82525050565b61236781611eb6565b82525050565b61237681611ef4565b82525050565b600082825260208201905092915050565b600061239882611dd0565b6123a2818561237c565b93506123b2818560208601611dec565b6123bb81611e16565b840191505092915050565b600060e0830160008301516123de600086018261234f565b5060208301516123f1602086018261235e565b506040830151612404604086018261235e565b506060830151612417606086018261234f565b50608083015161242a608086018261236d565b5060a083015184820360a0860152612442828261238d565b91505060c083015184820360c086015261245c828261238d565b9150508091505092915050565b600061247583836123c6565b905092915050565b6000602082019050919050565b600061249582612323565b61249f818561232e565b9350836020820285016124b18561233f565b8060005b858110156124ed57848403895281516124ce8582612469565b94506124d98361247d565b925060208a019950506001810190506124b5565b50829750879550505050505092915050565b60006020820190508181036000830152612519818461248a565b905092915050565b60006020828403121561253757612536611e8c565b5b600061254584828501611f15565b91505092915050565b61255781611fa0565b82525050565b600060e082019050612572600083018a61254e565b61257f60208301896122ba565b61258c60408301886122ba565b612599606083018761254e565b6125a660808301866121d9565b81810360a08301526125b88185611e27565b905081810360c08301526125cc8184611e27565b905098975050505050505050565b6000806000606084860312156125f3576125f2611e8c565b5b600061260186828701611edf565b935050602061261286828701611fc7565b925050604084013567ffffffffffffffff81111561263357612632611e91565b5b61263f8682870161214f565b9150509250925092565b600080604083850312156126605761265f611e8c565b5b600061266e85828601611edf565b925050602061267f85828601611ff3565b9150509250929050565b600080604083850312156126a05761269f611e8c565b5b60006126ae85828601611edf565b92505060206126bf85828601611edf565b9150509250929050565b7f4e487b7100000000000000000000000000000000000000000000000000000000600052602260045260246000fd5b6000600282049050600182168061271057607f821691505b602082108103612723576127226126c9565b5b50919050565b7f4f6e6c7920506172656e74732063616e20617574686f72697a6520746865207460008201527f72616e73616374696f6e73000000000000000000000000000000000000000000602082015250565b6000612785602b83611ddb565b915061279082612729565b604082019050919050565b600060208201905081810360008301526127b481612778565b9050919050565b7f4e487b7100000000000000000000000000000000000000000000000000000000600052601160045260246000fd5b60006127f582611fa0565b915061280083611fa0565b9250828203905063ffffffff81111561281c5761281b6127bb565b5b92915050565b7f4e487b7100000000000000000000000000000000000000000000000000000000600052603260045260246000fd5b60008190508160005260206000209050919050565b60006020601f8301049050919050565b600082821b905092915050565b6000600883026128b37fffffffffffffffffffffffffffffffffffffffffffffffffffffffffffffffff82612876565b6128bd8683612876565b95508019841693508086168417925050509392505050565b6000819050919050565b60006128fa6128f56128f084611ef4565b6128d5565b611ef4565b9050919050565b6000819050919050565b612914836128df565b61292861292082612901565b848454612883565b825550505050565b600090565b61293d612930565b61294881848461290b565b505050565b5b8181101561296c57612961600082612935565b60018101905061294e565b5050565b601f8211156129b15761298281612851565b61298b84612866565b8101602085101561299a578190505b6129ae6129a685612866565b83018261294d565b50505b505050565b600082821c905092915050565b60006129d4600019846008026129b6565b1980831691505092915050565b60006129ed83836129c3565b9150826002028217905092915050565b612a0682611dd0565b67ffffffffffffffff811115612a1f57612a1e612052565b5b612a2982546126f8565b612a34828285612970565b600060209050601f831160018114612a675760008415612a55578287015190505b612a5f85826129e1565b865550612ac7565b601f198416612a7586612851565b60005b82811015612a9d57848901518255600182019150602085019450602081019050612a78565b86831015612aba5784890151612ab6601f8916826129c3565b8355505b6001600288020188555050505b505050505050565b7f5573657220616c72656164792072656769737465726564210000000000000000600082015250565b6000612b05601883611ddb565b9150612b1082612acf565b602082019050919050565b60006020820190508181036000830152612b3481612af8565b9050919050565b7f55736572204e6f7420466f756e64000000000000000000000000000000000000600082015250565b6000612b71600e83611ddb565b9150612b7c82612b3b565b602082019050919050565b60006020820190508181036000830152612ba081612b64565b9050919050565b6000612bb282611ef4565b9150612bbd83611ef4565b9250828201905080821115612bd557612bd46127bb565b5b92915050565b7f4f6e6c7920706172656e742063616e20616464206d656d626572730000000000600082015250565b6000612c11601b83611ddb565b9150612c1c82612bdb565b602082019050919050565b60006020820190508181036000830152612c4081612c04565b9050919050565b7f46616d696c79204d656d626572206e6f7420726567697374657265642120546860008201527f6579206d7573742063726561746520616e206163636f756e7420746f2062652060208201527f61646465642061732061206d656d6265722e0000000000000000000000000000604082015250565b6000612cc9605283611ddb565b9150612cd482612c47565b606082019050919050565b60006020820190508181036000830152612cf881612cbc565b9050919050565b6000606082019050612d1460008301866122ba565b612d2160208301856121d9565b612d2e60408301846121d9565b949350505050565b6000602082019050612d4b60008301846122ba565b9291505056fea26469706673582212206825b40d5bf669a456d33e8275f3fad746f5e0297dbdabede9d8aaba5d329ad764736f6c634300081c0033",
  "linkReferences": {},
  "deployedLinkReferences": {}
}